:020000041000EA
:1000000000B5324B212058609868022188439860DF
:10001000D860186158612E4B002199600221596106
:100020000121F02299502B49196001219960352056
:1000300000F044F80222904214D00621196600F024
:1000400034F8196E01211966002018661A6600F04E
:100050002CF8196E196E196E052000F02FF8012189
:100060000842F9D1002199601B49196000215960AB
:100070001A491B48016001219960EB211966A021F2
:10008000196600F012F800219960164914480160C1
:100090000121996001BC002800D000471248134993
:1000A000086003C880F30888084703B5996A0420EC
:1000B0000142FBD001200142F8D103BD02B5186610
:1000C0001866FFF7F2FF186E186E02BD00000240BE
:1000D000000000180000070000035F00212200005C
:1000E000F4000018222000A00001001008ED00E03C
:1000F00000000000000000000000000074B24E7A12
:1001000000200420F7010010C3010010C5010010F9
:10011000C1010010C1010010C1010010C101001097
:10012000C1010010C1010010C1010010C701001081
:10013000C1010010C1010010C9010010CB01001065
:10014000CD010010CD010010CD010010CD01001037
:10015000CD010010CD010010CD010010CD01001027
:10016000CD010010CD010010CD010010CD01001017
:10017000CD010010CD010010CD010010CD01001007
:10018000CD010010CD010010CD010010CD010010F7
:10019000CD010010CD010010CD010010CD010010E7
:1001A000CD010010CD010010CD010010CD010010D7
:1001B000CD010010CD010010CD010010CD010010C7
:1001C00000BE00BE00BE00BE00BE00BEEFF3058054
:1001D000103800BEF2EB887148FD031070FD03106B
:1001E0003802001090A31AE71E481F49086006C88D
:1001F00081F3088810471D480068002801D019487D
:10020000F3E70DA40ECC002902D000F012F8F9E7B4
:100210001749184A002000E001C19142FCD116495B
:100220008847164988471649884700BEFDE701C937
:1002300001C29A42FBD3704770FD0310C00000203A
:1002400038050020E801041000000420000004200C
:10025000E801041000100420001004200000000039
:10026000704700000000000008ED00E0000000D032
:100270003805002058150020E13A00102103001035
:10028000D93A0010F8B5C0460448054B10B5834272
:1002900003D0044B002B00D0984710BD3805002038
:1002A000380500200000000006480749091A8B1095
:1002B000C90FC91810B5491003D0044B002B00D04A
:1002C000984710BD380500203805002000000000C8
:1002D00010B5074C2378002B09D1FFF7D5FF054B4C
:1002E000002B02D0044800E000BF0123237010BDA2
:1002F000000800200000000070800010054B10B5C1
:10030000002B03D00449054800E000BFFFF7CCFFF5
:1003100010BDC046000000000408002070800010DE
:1003200010B503F00FFD03F0FFFE002810D10121EE
:10033000002003F0E9FEFA20400001F02BF8002134
:10034000002003F0E1FEFA20400001F023F8EEE780
:10035000024803F0D1FD0120404210BD7080001022
:10036000094A83009A1810B514684022544080321C
:100370002240064CC000A44663441A60044B9C46CD
:100380006044416010BDC04604C0014004D001403B
:1003900000400140074B8000C3181B68C900920051
:1003A0000A435A400C231340034A944660440360B6
:1003B0007047C04604C0014004D0014080000029BD
:1003C00005D0064B9C460223604403607047044BF3
:1003D0009C46022360440360F8E7C04604E0014005
:1003E00004F00140D0231B061B6830B505005842BD
:1003F00043412F205B4283430E48EC08844607208C
:1004000028408000814020000B4D3C306344800038
:10041000A40041511B19002A05D080229201944664
:100420006344196030BDC022920194466344196050
:10043000F8E7C0463041014000400140D023F0B50C
:10044000C6461B0698461B680C4F9B001600FA58C0
:1004500004000D0000B5104209D1290014430D20FD
:100460003200FC5000F066F980BCB846F0BD01F0E7
:10047000A3FA43461B689B00FA58EEE730140020AD
:1004800010B504000D2000F04FFAD0231B061B68A6
:1004900002499B005A58A2435A5010BD3014002004
:1004A0000123D0228340120693629361094A83009C
:1004B0009A1811684022514080320A400649C00013
:1004C0008C4663441A60054B9C4605236044436098
:1004D0007047C04604C0014004D0014000400140C4
:1004E0000FB400B5084883B003F07EFC049B002BDA
:1004F00007D005A91800019103F0D4FA034803F0CE
:1005000073FC012003F0E6FA8480001034820010AE
:10051000EFF3108072B6034A1368002BFCD0BFF3D0
:100520005F8F70472C0100D0BFF35F8F0022024B1A
:100530001A6080F3108870472C0100D070B5EFF37B
:10054000108C72B60D4D2B68002BFCD0BFF35F8F63
:100550000724CB08C618C05C01230C40A3401C0034
:100560000440034207D118433070BFF35F8F2C6003
:100570008CF3108870BD1000FFF7B2FF2C0100D083
:10058000F8B54746CE46884680B5EFF3108C72B674
:10059000214D2C68002CFCD0BFF35F8F9A422CD8E1
:1005A000D4080727055D061901241740BC402C42DA
:1005B0001FD007210127894609E0D408055D0619E7
:1005C0004C4639001440A1400C00294211D00132A0
:1005D0009342F2D201204042BFF35F8F00220E4BC4
:1005E0001A608CF3108800280FDBC0BCB946B046F7
:1005F000F8BD254310003570EEE7BFF35F8F002391
:100600002B608CF31088012040424346002BECD035
:100610000898FFF765FFC0462C0100D030B5EFF316
:10062000108C72B60A4C2368002BFCD0BFF35F8F8E
:10063000072301220B409A40CD08435D9343435565
:10064000BFF35F8F002323608CF3108830BDC0465A
:100650002C0100D0044A1078431CDBB2172B00D9C0
:10066000102313707047C046680400200021044B1B
:10067000044ABFF35F8F02C39342FAD17047C0466A
:10068000000100D0800100D0054B064A1360064AE5
:10069000136053609360D36013615361936170473B
:1006A0008080808000E400E004E400E01F23184024
:1006B0001E3B8340002905D0C021044A4900535005
:1006C00013607047802201498B50FAE700E100E097
:1006D00001238340014A13607047C04600E200E0F6
:1006E00070B50D00EFF3108672B60F4A1368002B39
:1006F000FCD0BFF35F8F0D4B10309B6884001B59FB
:100700000B4A934203D09D4201D001F055F9074BAB
:100710009B681D51BFF35F8FBFF35F8F0022024BB9
:100720001A6086F3108870BD240100D000ED00E04F
:10073000CD010010F0B557464E46DE464546E0B5C1
:1007400085B0060000911700EFF3108B72B66A4A6D
:100750001368002BFCD0BFF35F8F0025674B5D57FC
:100760009A46002D00DAA9E06B00654C01935B19F5
:100770009B009846A146C1444B4652469B79103691
:100780001370604BB6009B6899590B1B2F2B33D904
:100790005D4B994200D0ACE0019B42469C465B4BCE
:1007A0006544AD0063535A4B0232A218043B9B1AB6
:1007B0001B05584A5B0D651913436B80564B01218D
:1007C000AB80FF23AB71009BEF71AB604B460B43DB
:1007D00019004C4B9B689951BFF35F8FBFF35F8F3C
:1007E0000022454B1A608BF3108805B0F0BCBB4665
:1007F000B246A946A046F0BD01200A008243D37943
:100800008C46BB4231D84546130044491B1B5B4113
:100810005943090D3D4B63533D4B02356519043B6C
:100820005B1B1B053B4D5B0D2B43AA464D466B8066
:100830000425AC465546E044131F44441B1B1B05CE
:100840005B0D1D434B46997100999D809960494607
:10085000DF71334B01431360BBE75800C0188000C1
:100860002018C179B9422FD902000623D356002B94
:10087000F3DA02932B4B61460393131D9A4604232C
:100880005B429C46E14450464B461B1A1B055B0DE0
:100890009C46204B9571984663464046034393809F
:1008A000019B5A199200039BA418A380029B1C4A27
:1008B000A371009B2260E771A3608AE701F07CF8D6
:1008C000002553465D574FE7908802934005131D5E
:1008D0009A46031561469C464046D444634604301C
:1008E0002018181AE0230005400D1B02184303903E
:1008F000C5E701F061F84FE7240100D0551500204D
:100900006C04002000ED00E0CD01001000A1FFFF0D
:100910009C04002000E0FFFF01BDFFFFAAAA000029
:100920000148804701BD0000F0B5DE4657464E46FF
:100930004546E0B50C0083B0EFF3108872B6634A09
:100940001368002BFCD0BFF35F8F614B61499A683D
:10095000030010339F00D55900938D4243D0A54228
:1009600054D05D4EAA1B2F2A3DD85C4B9C461B6879
:100970009A4601231A0099468240534613401F228B
:1009800001934B46024093409A468022634650466C
:100990009850BFF35F8FEFF305839B46002B37D052
:1009A000009B5B4501D001F007F82A004B469A43B3
:1009B0009068844208D177E04B005B189B00F318E5
:1009C0009868844236D01A00062151560029F3DA7D
:1009D000844255D0019B002B27D0C02251463F4B6B
:1009E0005200995019603A4B9B68DD51BFF35F8FFD
:1009F000BFF35F8F0022354B1A6088F3108803B075
:100A0000F0BCBB46B246A946A046F0BD0D00EAE7E1
:100A10002A004B469A4390688442D5D1062010564E
:100A2000130000280ADA0D0032E0802351462B4AD9
:100A3000D150D8E706201856002822DB42001118B2
:100A4000890074188946A1689960E179D9710621F5
:100A500061569971002925DBA488F11A64052415D3
:100A60004C440919E0240905490D240221439980C9
:100A700013181B4A9B001178F31899711070A9E79D
:100A800013005946002914D1FF3191711549918005
:100A900013490A789A71144A9B1B5B415A43120D01
:100AA0000A7097E71149E2E7062010561300002864
:100AB000C4DA0F4A0F49D21A083A5002400D0143D6
:100AC00099800D4952080A43DA8083E7240100D057
:100AD00000ED00E0CD0100106C04002000E100E01A
:100AE0005515002001BDFFFFAAAA000001BD0000AE
:100AF000A604002000F0FFFF00F8FFFF10B58308F8
:100B0000040003202040FF24054AC000944684408E
:100B100081409B0063441A68A2430A431A6010BDD7
:100B200000E400E070B501240443EFF30581EFF326
:100B3000108C72B6214A1368002BFCD0BFF35F8F74
:100B40001F4B05001F4AED1A6D416A43120D1E4DE1
:100B50008900AE6852B27658A6421CD0062159567A
:100B600091421CD012215956914222D01E21595631
:100B7000914220D02A2159560324914210D0134B80
:100B800019781A708171BFF35F8F00220B4B1A60C6
:100B90008CF3108870BDAB680D4C5C50EFE70024FF
:100BA0006100091989005B18FF2199710949998031
:100BB000E5E70124F4E70224F2E7C046240100D06F
:100BC0006C040020AAAA000000ED00E055150020EA
:100BD000CD01001001BDFFFF1F2110B5091A024809
:100BE000FFF71CFD10BDC0465615002010B5084B80
:100BF000084C82B001000093002205232000FFF77B
:100C0000BFFC002801DB1F23181A02B010BDC0462C
:100C1000948000105615002070B504000E001500D9
:100C2000FFF718FD0100200000F006F8A680E5801F
:100C3000BFF35F8F70BDC046024B9C466144890084
:100C4000016070474000003470B5114C114DAC424A
:100C50000FD2FF262368002B0CD0FFF7FBFC01000E
:100C60002000FFF7E9FFA680BFF35F8F0834AC4296
:100C7000F0D370BDFFF7EEFC01002000FFF7DCFFB2
:100C80002671BFF35F8F0834AC42E3D3F1E7C0466F
:100C9000300500203805002010B50400FFF7DAFC0D
:100CA00001002000FFF7C8FFFF23A380BFF35F8F81
:100CB00010BDC0460A4B1968EFF3108072B60A687F
:100CC000002AFCD0BFF35F8F1B68BFF35F8F002249
:100CD0001A6080F3108840BF002000217047C04692
:100CE00044150020F0B5DE4657464E464546E0B571
:100CF00083B0EFF3058203231340B54A990052589D
:100D00000091904601229A40B24B93461A60B24B32
:100D100001932EE043469B881BB2002B00DB99E039
:100D200043469B79002B00D0DDE0434608241C5F3E
:100D3000002C00DA06E143465A6963001B19DB0008
:100D4000D3189D68DC686B1C00D107E1A34B0099A8
:100D50009C4661449A6A0B69A81A9B1A984200D271
:100D60000D619E4800F0ACFB8C4200DDEAE000D152
:100D700026E15B4699484363434608229B5E9946B9
:100D8000002BC7DB424652695B0092464B44DB00B6
:100D90009A4453469E68DF6800F092FB8F42B9DCAC
:100DA00000D100E1002F00DAE1E0524653465469D9
:100DB0001B69019A934200D1D4E041465246082073
:100DC000085E5288000421001043984704000D007B
:100DD00023002B4300D1CAE0002D00DBE7E0300008
:100DE0003900001BA94153469860D96000229A5EE1
:100DF000002A8FDB43465D6953009C18E4002C19E0
:100E0000A768E4688C4200DD84E702D1874200D9FC
:100E100080E74646328108360DE08C4200D1D3E0AF
:100E20001E000023F25E002A0ADB53009C18E40037
:100E30002C19A768E4689B18DB00EB188C42ECDDEA
:100E400053461A804B46338043469B881BB2002B87
:100E500000DA65E743461A69EFF3108172B613684A
:100E6000002BFCD0BFF35F8F43469E880123424690
:100E70005B42938036B21369BFF35F8F00221A6022
:100E800081F31088002E00DA4AE743465D69083393
:100E900042469C467700BF19FF00EF19BB686046C9
:100EA00098460823D15E9246FC68002907DA0EE0D6
:100EB000A2424FD018000023C15E002906DB4B0080
:100EC0005B18DB00EB18DA68A242F1DD52460680BF
:100ED0000023FE5E3980002EDCDA904643469B7983
:100EE000002B00D121E7002342469371434646463A
:100EF0000821595E08364B1C24D04746894655695F
:100F000002E006004B1C18D04B005B18DB00E81811
:100F10000A008C46E95E43881BB2002BF1DA0123FC
:100F20005B42DC178360C4604A4503D031803B8953
:100F300003803A81E1464B1CE6D14C46B846002C72
:100F400000DBF8E640BF03B0F0BCBB46B246A946A2
:100F5000A046F0BD9A684245ACD9B7E7631C00D003
:100F6000F4E6FEE6200023699847002825D1534681
:100F700042461B8813811269EFF3108372B6116821
:100F80000029FCD0BFF35F8F4246514652880A8049
:100F90004246494651801269BFF35F8F00211160BC
:100FA00083F31088B6E6864200D8FBE6B2E60B482B
:100FB00000F086FA0019694115E76568246807E7BB
:100FC000854200D8D5E6BDE7874200D828E737E755
:100FD000201400203C700540E50C00100040054046
:100FE00070B52E4C2569002D04D00A212C48FFF73E
:100FF00023FE70BD2B4E0321300000F057FAE6604F
:10100000FFF728FB284B03229C46D02322701B06A7
:101010001B6801216370254B6044A3600F2380008F
:1010200020610220638063694942A18019800231F6
:10103000198647311D83585218315A5275325C391E
:10104000995218320131995218320131995218329D
:1010500001319952083518329D5202311832995295
:101060001832013199521832013199521832013136
:1010700099521832013199521832013199520C4B60
:101080000C49DC6001303562FFF72AFB01210320A7
:10109000FFF70CFB084B1D60A7E7C046B404002017
:1010A000441500200040054040000034FFFF1000C0
:1010B00020140020E50C00103860054000487047FF
:1010C000B4040020F8B51F0008AB1B78040016001C
:1010D000002B08D100F0FCF932003B00121A8B41C2
:1010E000002B00DA53E02269EFF3108072B6136828
:1010F000002BFCD0BFF35F8F0223E15E63694A00DF
:101100005218D2009B18002937DB1A8862802269A6
:10111000BFF35F8F0025156080F31088069A9E60EC
:10112000DF601A61079A5A615A8801325204520CE0
:10113000101C002A1FD082B2588008041043266970
:10114000EFF3108772B63268002AFCD0BFF35F8FCE
:10115000A2881A80A1802369BFF35F8F00221A60E2
:1011600087F310880B4923788C4601329A40E36854
:1011700063441A60F8BD0120DDE72369BFF35F8F88
:1011800000221A6080F3108801204042F2E700201C
:10119000F0E7C0463C20000070B501000469EFF3A1
:1011A000108C72B620680028FCD0BFF35F8F02203D
:1011B0000D5E4C6968004019C0002418002D37DB13
:1011C000208848800869BFF35F8F002606608CF393
:1011D0001088E36063880498013320615B040598FC
:1011E0005B0CA26060611A1C002B1FD093B2280414
:1011F000628018430A69EFF3108C72B61368002BF3
:10120000FCD0BFF35F8F8B8823808D800B69BFF389
:101210005F8F00221A608CF310880B7801329A409D
:10122000CB6808498C4663441A6070BD0122DDE733
:101230000B69BFF35F8F00221A608CF310880120C6
:101240004042F2E73C20000010B543890A14934263
:101250001ADD53009B184269DB00D3180469EFF3D1
:10126000108C72B62268002AFCD0BFF35F8F5A88B8
:10127000090494B2090C8A4208D00369BFF35F8F56
:1012800000221A608CF31088002010BD8022120208
:1012900014435C80012302698371BFF35F8F0021D7
:1012A00011608CF31088044902788C469340C26820
:1012B000012062441360E8E73C200000F0B5040020
:1012C0000D0006267642F717C64636196F4100B55F
:1012D00082B08F4214D811D000F0FAF832003B00EF
:1012E000121A8B41002B17DC002B47D0200029005D
:1012F00000F02CF902B080BCB846F0BD8642EBD9B4
:101300000022002316001F0000F0E2F832003B002C
:10131000121A8B41002BE7DD00F0DAF832003B00B7
:10132000121A8B41002B0ADB00230193154B32006C
:10133000009315483B00FFF72FFF0028D6DB002362
:101340009C46B046114A124E736A9F4204D8B16A55
:101350008845CBD99F42C9D11168EFF3108072B68E
:101360000B68002BFCD0BFF35F8F1368BFF35F8F58
:101370006146196080F3108820BFE5E7002AB5D0E8
:10138000CAE7C046B50C0010B40400204415002084
:101390000040054070B5060000F09AF8FA220400FB
:1013A0000D00002330000021920000F083FF802315
:1013B000001969411B06994202D3012002494042AB
:1013C000FFF77CFF70BDC046FFFFFF7FF0B5CE4644
:1013D000474680B504000D0083B0EFF305878846CB
:1013E000002F3ED12E4EA1463378F06804339B0087
:1013F000816A1B58601A5B1A98420ED320BF294994
:1014000000204B6AAB4203D38A6A0130944231D840
:1014100003B0C0BCB946B046F0BD00F059F8220098
:101420002B00121A8B41002B2FDB1F4B2200009345
:1014300030002B000197FFF7AFFE011E25DD194B91
:101440005A6AAA421BD220BF3000FFF7FDFE154AA0
:101450000020536A4345DBD3926A01309145D7D9C6
:1014600008E0104900204B6AAB42D1D38A6A0130B0
:10147000A242CDD25B1B5A1E9341D8B2C8E79B6AE9
:101480009C42E1D9AA42DFD1DDE7064A0020536A37
:101490004345BDD3926A01209145B9D9EAE7C046D8
:1014A000B404002000400540B50C001010B5024AFD
:1014B0000248FFF743F810BDB0800010EC0A00208E
:1014C0000300416A0A00986A596A8A42FAD1704751
:1014D000034B596A0A00986A596A9142FAD17047D7
:1014E0000040054070B504000D00174A536A19000A
:1014F000966A536A8B42FAD13000190024184D4184
:10150000AB4216D813D0104A2B00526A954203D929
:101510000D494A6A9A42FCD39A4207D10A4A02E02C
:10152000516A994202D1916AA142F9D370BDA64293
:10153000E9D9054B5B6A1C005A1CEFD0012301243A
:101540006442E5175B42E3E700400540064A536A00
:101550009942FCD807D1044B02E05A6A914202D169
:101560009A6A8242F9D3704700400540F8B50400FA
:1015700006200D0000F078F9002844D0374B384998
:10158000E3185A1E93418022120494465B429B0D3D
:10159000344A9B0563441360334A136018000A6899
:1015A0009043FBD12D4B314AE31859424B418021E6
:1015B0005B0049000620995200F056F92900C0004E
:1015C00000F006FB0130C3091ED1402701226262F0
:1015D000A362266BF30722D4E36A254B0620E518A5
:1015E00000232B60266300F03FF93900800000F0F3
:1015F000EFFA7023E26A5A400E3313402B601D4B02
:1016000023630323A364F8BD1B4A93421ED900231E
:101610001A4A1B4F6262A362266BF307DCD5194B93
:10162000144AE3181A60656AA36A0620AD01ED1832
:1016300000F01AF9144900F0CBFAAD0201002800BD
:1016400000F0C6FA0021FFF74DFFC5E74006800E07
:101650009F011A003F180300B9E7C0460080FCBF95
:1016600008C0004000E0004000F0004048150020A5
:101670002C10000001030000FEFF0000FFFF00002F
:10168000C0FF3F00303000004E0E0000F8B5DE46CF
:101690004E4657464546E0B58B4605000A99180068
:1016A000160000F095FA0A9B6C001F02324B641979
:1016B0009C46A4006444636881469F4200D96760E9
:1016C0002B1FDBB29846012B30D9C02380229B010F
:1016D000E31812011A60294BAD0059599A460029A6
:1016E0001BD17301E026226853401E4080234246EE
:1016F0005B01E3181E60012A30D9802380229B0100
:10170000E31812011A6053464A4667605A51F0BC0A
:10171000BB46B246A946A046F8BD586900F058FA43
:10172000013043001B18033BFDD2DAE75B46012B77
:10173000CBD1C02303229B01E3181A60023AA368AD
:101740001A42FCD07301E0262268AD0053401E40CF
:1017500080230A4A5B019246E3181E605A462168BC
:10176000514003220A401A6001225B469A40A36856
:101770001A42FCD0C1E7C04600800040F40A0020B5
:10178000F0B546464F46D646C0B51F00344B440020
:101790009C462418A4006444636888461600FF2B06
:1017A00002D880235B006360031FDBB29A46012BE3
:1017B00030D9C02380229B01E31812011A60294B03
:1017C00085005959994600291BD17301E0262268EA
:1017D00053401E40802352465B01E3181E60012ADD
:1017E00030D9802380229B01E31812011A608023E4
:1017F0005B0063604B465F51E0BCBA46B146A84609
:10180000F0BD586900F0E4F9013043001B18033BB8
:10181000FDD2DAE74346012BCBD1C02303229B0143
:10182000E3181A60023AA3681A42FCD07301E0265A
:101830002268850053401E4080230A4A5B0191467E
:10184000E3181E6042462168514003220A401A6094
:10185000012342469340A2681342FCD0C1E7C04630
:1018600000800040F40A0020014B8000C0587047FF
:10187000F40A0020F8B5040021481E0017000D00EE
:1018800000F0A6F90100380000F0A2F9069B36042A
:101890001B031E432368002B20DB1A4B1A49E31855
:1018A0005A1E93418022920194465B421B0B174AB9
:1018B0001B0363441360164A13601F000A689743B2
:1018C000FBD1144B2560E2182123A060136023682C
:1018D000002BFCDA0823E6601360F8BD3F23226882
:1018E0001340AB42D9D1A3681B051B0D8342D4D151
:1018F000EE22E368D2021340B342CED1EDE7C046F8
:10190000001BB7000040FDBF08C0004000E00040E1
:1019100000F00040043000008023024A9B000B438B
:10192000D362704700800540142310B50100188869
:1019300004331B88984710BD162310B50100188882
:1019400002331B88984710BDF8B54746CE4680B590
:101950000F1E19D0142399460433040000250126D4
:1019600098464B461888434621681B88984701C40F
:10197000431E9841013540420640AF42F1D130004C
:10198000C0BCB946B046F8BD0126F8E7AA23064A0E
:101990001B0113602F230549D360054B1960536861
:1019A000002BFCDA7047C0460040024000B0FA004D
:1019B000006002407047C04610B50148FEF790FD38
:1019C000D480001070B5074D074EB54209D20024EF
:1019D000013E761BB60808CD984723000134B34278
:1019E000F9D170BD2880001064800010054B064AB4
:1019F00006491A60064A074B1A6010000B689843A4
:101A0000FBD1704700E00040BFCDFBFE08C00040A6
:101A1000FE7F3C0000F00040044BDB6C002B03D148
:101A20008022034BD2021A607047C046000011505A
:101A30004C201150044A054B1A60054A1368DB011B
:101A40008033FBD17047C046FFFFFF0100F000402C
:101A500008C000404022034B9A675A671A67DA664B
:101A60007047C04600F0014010B5FEF7FFFD10BD05
:101A700070B5044D044CA968C022200000F076FC2B
:101A8000AC6070BD00ED00E000000020002310B548
:101A9000294C82B0A367FFF779FF0122274B1A6018
:101AA000636C012BFCD10322254B1A60224A936BF5
:101AB000012BFCD1013300930121224A2248043337
:101AC000FFF7D8FE052301210093204A2048FFF7A5
:101AD000D1FE0022022104201E4BFFF751FE0022FE
:101AE000012105201C4BFFF74BFE0022002107209F
:101AF0001A4BFFF745FE002200210820174BFFF785
:101B00003FFE8023DB000093002200210920134BBD
:101B1000FFF7BCFD0022104B00210620FFF730FE2E
:101B20000420FFF7A1FE0E4900F052F8010000204A
:101B3000FFF7F2FE02B010BD008000403CB0004054
:101B400030B00040002F685900800240008C86476A
:101B500000C00240001BB70040597307006CDC0254
:101B600040420F0001480421014B1847D0040020D7
:101B700049190010014B9B6818470000D004002051
:101B8000124A936F9B0815D29066D166002905D042
:101B9000FFE7FFE7FFE7516F106F704704B5802143
:101BA0000906C2175140002800D0C84306F014FAB5
:101BB000002104BDF0B5146E556E576F166FFFF718
:101BC000E3FF1466556657671667F0BD000000D046
:101BD000114A936F9B0813D210665166002905D0F5
:101BE000FFE7FFE7FFE7516F106F704704B500286C
:101BF00001D00020C04306F0EFF9002104BDC0462B
:101C0000F0B5146E556E576F166FFFF7E5FF14664B
:101C1000556657671667F0BD000000D094464A4AE3
:101C2000926F9208624601D228E0C046F0B5464E57
:101C3000346E756E776F366F00F020F89446424A26
:101C400014665566576716676246F0BD94463E4A6D
:101C5000926F9208624601D254E0C046F0B53A4E07
:101C6000346E756E776F366F00F04CF89446364AD6
:101C700014665566576716676246F0BD002B24DB75
:101C800011D000293EDA00B5C943404200D10131EC
:101C900000F038F8C943404200D10131DB435242E1
:101CA00000D1013300BD002AEBD1002801D1002969
:101CB00005D00020C90FC90701D1C043410800B5B4
:101CC00006F07AF90022002300BD00B500290ADBE6
:101CD000DB43524200D1013300F014F8C9434042C3
:101CE00000D1013100BDC943404200D10131DB4385
:101CF000524200D1013300F005F8DB43524200D1DB
:101D0000013300BD002923D1002B18D1002A0CD0AB
:101D1000BC460D4F38667A6600210023FFE7FFE7D7
:101D2000FFE77A6F386F67467047002801D0074891
:101D3000010000B506F040F90022002300BD0200BA
:101D40000B00002000217047000000D0FFFFFFFFC4
:101D5000002B00D0BFE0130C28D1002AE7D080B4BC
:101D6000114F39667A66FFE7FFE730B4040C7B6FEA
:101D7000396F1B0423433B667A66FFE7FFE7FFE703
:101D8000C04684B27B6F3D6F1B0423433B667A667B
:101D9000FFE7FFE7C04600232C042D0C7A6F386F55
:101DA00000196941B0BC7047000000D0F0B59446FE
:101DB0000025140E01D112020835140F01D11201B1
:101DC0000435940F01D192000235D40F01D1520095
:101DD0000135D40B0134254F7C66254C3C660E0C36
:101DE00093B2FFE7FFE7FFE73C6F6643360C7703EC
:101DF000BE467343DF0B5B04C01AB941130C734337
:101E0000DB18C91ACE086643360CB64493B2734346
:101E10001F0F1B01C01AB941130C73431F0B1B0585
:101E2000C01AB941860D8F023E436643360C092D18
:101E300024DB520A7243801A7703460A6643360C43
:101E400016235B1BDE40DF40BF1964466643821BDE
:101E50007046043506330100D940A840C01900D3AC
:101E60000131A24206D20023F0BD0000000000D0E4
:101E7000FFFFFFFF121B0130F3D3F1E709277F1BA0
:101E8000FE406446A2B27243801A00D20139220C8D
:101E90007243130C1204821A99410B0070460435E8
:101EA00013370100F940A840801900D30131002BFD
:101EB00002D1A2420AD2F0BD013000D30131121B7F
:101EC000FAD2013BF8D1A24200D2F0BD013000D3DA
:101ED0000131121BF7E7F0B51C0C00D080E00CB408
:101EE00000251C0A04D11B02160E334312020835CA
:101EF0001C0B04D11B01160F3343120104359C0B3C
:101F000004D19B00960F334392000235DC0B02D1C3
:101F100092185B4101351C00971864410134464F0B
:101F20007C66464C3C660E0CFFE7FFE7FFE7C046C9
:101F30003C6F6643360C7703BE4697B27743C01BAF
:101F400000D20139C01B00D201399FB27743C91BAF
:101F5000C91B170C77437E04FF0B801BB941CE08C9
:101F60006643360C0C2D33DBB644120B1F053A4387
:101F70001B0B97B27743C01B00D201399FB2774346
:101F8000C91B170C77433E043F0C801BB941860DDB
:101F90008F023E43664329277F1BFE400C3D774658
:101FA000AF40BF1930BCA2B2ABB272437343801AC8
:101FB0009941220C7243130C1204801A99410200B9
:101FC0000B000137001BA941F9D2781E0021F0BD9A
:101FD0000C277F1BFE4077467F0BAF40FF19E0E7E1
:101FE00000245D1C07D0144F7D663966FFE7FFE7CC
:101FF000FFE7FFE73C6F95B29EB265436643401B27
:10200000B141150C1E0C6543664336042F0C3E434C
:102010002D04401BB141994204D202000B00200064
:102020000021F0BD01D19042F7D3801A99410134CB
:102030009942F2D3F6E70000000000D0FFFFFFFF57
:1020400048404140484018B4134B5B68019308BDB9
:1020500018B4114B1B68019308BD94460F4A926F48
:10206000920805D2624618B40B4BDB68019308BD99
:102070000A4AF0B5146E556E576F166F6246FFF739
:10208000F2FF064A1466556657671667F0BD18B426
:10209000014B9B68019308BD00070020000000D0A1
:1020A000FFB550404240504059404B40594000E03D
:1020B000FFB5154F4C00640D03D0BC4204D10C0396
:1020C00014D80020090D09055C00640D03D0BC4242
:1020D00004D11C030AD800221B0D1B0501264B400E
:1020E00009D44B4003D58B4200D18242FFBD9942B7
:1020F000FCD19042FFBD0B43DB1803431343F5D0E3
:10210000C9434918FFBD0000FF07000000B5FFF7F5
:10211000CFFF804100BDC04600B5FFF7C1FF01D928
:10212000002000BD012000BD00B5FFF7B9FF8041D0
:1021300000BD012040054A00121804D85A001218A8
:1021400001D80020704701207047000000210028BE
:1021500005D17047C1174840401AFAD0C90713B5D6
:10216000064B1B6898470CBC441CA2401005120B80
:102170000349091B09051943114310BD40140020F0
:102180001F04000010B54C00620D8023D218DB0044
:10219000D21A5B057E2A10DD9E3A13DACC170903AA
:1021A000490819435242D140640001341532202AB3
:1021B00005DAD0400843604310BD002010BD08463A
:1021C000604310BDC80FC018013810BD18B4024BD1
:1021D0005B6A019308BD00000007002010B50148AC
:1021E000FEF77EF9E0800010132370B51D78012DF5
:1021F00019D014DD1D48FFF79FFB06001C48FFF7B0
:102200009BFB1C4C80223100200000F0AFF8022D17
:1022100006D01948FFF788FB184B186070BD154CA5
:10222000174BA364F5E7174B124C23606360A36060
:10223000E36023616361A361E36123626362A3627C
:10224000E36223636363A363E36323646364A3645C
:10225000E36423656365A365E36523666366A3663C
:10226000E36623676367A367E367D9E75344000026
:1022700053460000000700204C33000040140020AB
:1022800089220010DD21001007B5604601880A0A86
:102290000230DF2AFAD1C9B2820804D3028840880A
:1022A0000004104300E00068014A5050039007BD4D
:1022B0000007002051434343C9188C46110C83B2D8
:1022C0004B4310B4040C614392B280B2504362435A
:1022D0001C041B0C001910BC59411304120CC0182B
:1022E000514161447047000010B50148FEF7F8F80D
:1022F00010820010132310B510481C78FFF71CFB48
:102300000100012C0AD003DD80220D4800F02EF8D8
:102310000C48FFF709FB0C4B186010BD084C542209
:10232000200000F023F82200084980322368002BA7
:1023300000D1216004349442F8D1E9E7534600000B
:10234000441400204C33000040140020E922001007
:1023500001480421014B1847E004002049190010EE
:10236000014B1B6818470000E0040020014B5B682C
:1023700018470000E00400207047C046F8B55746F3
:10238000DE464E464546E0B599460A9B07009A460A
:102390000D9B884693460B9C9B073BD10C9B9C4214
:1023A0003DD21E1B0B9415000C005E442A004B46C8
:1023B000013521002020B847B542F7D1A0460B9C3B
:1023C000002C20D0454636195346321B013C185D7F
:1023D00029004B46B847002CF6D12B003500984613
:1023E0000D9B9B070FD55B46EC1A0C9BA3420AD9A9
:1023F000464698462A004B46310020200134B84713
:1024000001354445F6D32800F0BCBB46B246A94688
:10241000A046F8BD16001500002CD3D1E0E7160049
:10242000002CCFD11500EEE7F0B54F464646D64614
:10243000C0B584B098460EAB1B7894469946129B63
:102440000D9C109F119E9A0725D4002E65D1BC4289
:1024500021D201221A409246202C00D1E9E00C9AA8
:10246000551E302202E0202C00D17BE001342A5599
:10247000A742F8D85246002A0DD0B4420BD20C9A8B
:10248000551E3022202C02D171E0202C2DD0013499
:102490002A55B442F9D1DA063CD55A052ED4002C7F
:1024A00028D10F9A102A00D1B6E0022A00D1BCE050
:1024B00030220C9C227001244A46002A65D15A071A
:1024C00000D499E02B220C9D2A55013403930C9BD8
:1024D00062460093029643460194FFF74FFF04B013
:1024E000E0BCBA46B146A846F0BD2024DA06EDD5D8
:1024F0005A0503D4A74266D0B44264D00F9A102A7A
:1025000071D0022A57D0202CE0D02200013430258F
:102510000C9FBD54202CD9D0CEE7012215001D40C0
:10252000AA461A4236D04A46002A4AD10C321A42EA
:1025300047D1BC42A1D2202C91D1202E17D82024E3
:10254000DA06C3D55A051BD4202F01D0202ED5D1B1
:102550001F220F9D102D6FD0022DD8D162250C9F08
:10256000BD54D0E75246002A79D0202EBDD9202470
:10257000DA06ABD55A0503D4202FE9D0202EE7D0B8
:102580000F9A102AA2D12024A0E72D220C9D2A55B3
:1025900001349BE7BC4200D37DE7202C00D05EE7EE
:1025A000DA06F0D55A05EED4202F62D0202EEAD1DB
:1025B00034001F22CDE7202C00D187E72200013410
:1025C000CCE7013EB5E7621E012CC2D10F9A102A5A
:1025D00000D06AE79A063BD558220C9C2270283A14
:1025E0006270022468E79A060ED4202CCBD07822A1
:1025F0000C9D2A55013486E71A0700D466E720228D
:102600000C9D2A55013461E7202CBCD058250C9A2A
:1026100012191570013476E79A0608D558220C9CD9
:10262000227030226270022446E76032F7E7782297
:10263000F5E7002A83D1B3E7A21E013C9D0603D42F
:1026400078250C9FBD5460E758250C9FBD545CE76E
:1026500078220C9C2270483A627002242CE7DA0639
:1026600000D433E75A058BD4202F00D044E71F2233
:102670006FE73C001F226CE710B5002800D110BDA9
:1026800001F066FBFBE7C0460B0010B5002802D046
:1026900049681B68984710BDF0B557464E464546F9
:1026A000DE46E0B599B08246894690460893229A64
:1026B000239B10001900FFF73CFD002800D0CDE05F
:1026C000229823990122D94B5242FFF72DFD002871
:1026D00000D0C3E0229823990122D54B5242FFF744
:1026E00015FD002800D0B9E022982399002200238C
:1026F000FFF70CFD002800D0F1E1229E239F8023EC
:10270000269ADB001A400D92269A1A4201D106231E
:1027100024938023269A1B011A403B009346099676
:10272000334300D0B3E0002A00D0C2E100230024EC
:102730000A930B94002304250993259B0024AB42A4
:1027400000D95C1B0223269A1A400C92269A134247
:1027500003D06B426B415B421C40099B002B07D0AE
:102760000A9A0B9B30003900FFF777FC06000F0038
:102770002298239900220023FFF7C8FC002803D0E9
:10278000802109067B181F00269AAA4B0096019704
:102790001340089E0493249B039402934246330003
:1027A0004946504600F0AAF90400002D67D02020C9
:1027B000269A4946024013005A4253415B42621C2A
:1027C00018400A92330022004530D047099A6F1E04
:1027D000D317D4185C40D30F9B46002501E0202D71
:1027E00013D008AA94461F23200063440A21013510
:1027F0005E19FFF7EDF93031317020000A21FFF743
:10280000E7F926000400092EE9D8052306930023E2
:1028100004930A3303935B46089E029310AB0A9A13
:10282000009349463300504605970195FFF7FCFD9C
:102830000C9A0400002A22D04246851A259AAA4200
:102840001DD9B0465746160022004346494620206F
:102850000135B8470134AE42F6D810E0269B424617
:102860000493259B49460393249B50460293229B45
:10287000239C00930194089B00F040F90400200081
:1028800019B0F0BCBB46B246A946A046F0BD6A4BA3
:1028900078009C46400D6044FFF75CFC674A684B3B
:1028A000FFF7F5FB674A684BFFF7D2FB674A3B032C
:1028B0001B0B1A4304000D0009981100644B002201
:1028C000FFF7C1FB634A644BFFF7E1FB02000B001B
:1028D00020002900FFF7BCFBFFF754FC0990FFF72D
:1028E00039FC5E4A5E4B04000D00FFF7D0FB00226E
:1028F0005C4BFFF7ADFBFFF745FC5B4A5B4B2900E8
:102900000C902000FFF7C3FB04000C980D00FFF7AC
:1029100021FC574A574BFFF7BAFB02000B0020007F
:102920002900FFF790FB04000D0002000B000A9441
:102930000B95FFF7ACFB04000D000A980B99020001
:102940000B00FFF785FB00220E900F914A4B2000F1
:102950002900FFF782FB0022484BFFF779FB0200BA
:102960000B0020002900FFF778FB0022444BFFF703
:102970006FFB02000B0020002900FFF76EFB0A9A94
:102980000B9B0D0080210400C9050020FFF75BFBB5
:1029900002000B0020002900FFF75AFB02000B0089
:1029A0000E980F99FFF759FB0022284BFFF750FBB9
:1029B000344B0C9C9C46644423050022FFF767FBC4
:1029C00004000D0002000B00300039000A940B9542
:1029D000FFF79CFB00285DD123002A00C62509993A
:1029E00063318D42AD4159466D420435002900D115
:1029F000A3E6134363D030003900234A234BFFF78B
:102A00008BFB002807D0002230003900204BFFF755
:102A10007DFB002853D1249B002B00D18DE60D9B1C
:102A20005A1E9341249AD31A249386E6FFFFEF7F20
:102A3000FFFFEFFFFFF7FFFF01FCFFFFFB799F5058
:102A40001344D33FB3C8608B288AC63F0000F03FD1
:102A50000000F83F61436F63A787D23F71A37909F4
:102A60004F930A400000E03F1655B5BBB16B0240E2
:102A7000EF39FAFE422EE63F00002C4000002440D1
:102A800000001840FF0300002D431CEBE2361A3F04
:102A900080842E41099B0022013B09932000164BA4
:102AA0002900FFF7DAFA0A00010003000A910B92ED
:102AB00094E7002300240A930B9400230993249A9B
:102AC000099B9A4214DDD31A013B24938023269A52
:102AD000DB001A4300230025269209932DE680226D
:102AE00012069446229B1E00239B63441F0006E6A9
:102AF00000232493EAE7C04600002440F0B5454691
:102B0000DE464E465746E0B595B08B469046994610
:102B10001E9A1F9B0A9019001000209DFFF709FBC9
:102B2000002800D0B0E11E981F990122C74B5242E5
:102B3000FFF7ECFA002800D037E11E981F99012218
:102B4000C34B5242FFF7F0FA002800D0A7E01E98CE
:102B50001F990022BF4BFFF7E7FA002800D088E05A
:102B60001E981F990022BC4BFFF7D0FA002800D016
:102B70007FE01E981F9900220023FFF7C7FA002864
:102B800000D0FAE000230B938023229C229ADB00E2
:102B90001C401A4200D102E1092D00D87CE106A9AF
:102BA0008C462C00172200233021093C624401335B
:102BB000D154EF1A202B00D132E1A342F7D10022E9
:102BC000A44B069207931E981F99FFF7DBFA0500A6
:102BD000FFF7C0FA02000B001E981F99FFF733FAA7
:102BE000069A079BFFF753FA08900991FFF7EEFA50
:102BF0000600FFF7ABFA02000B0008980999FFF7EF
:102C000022FA0022954B08900991FFF78DFA0028CF
:102C100000D1D2E001363000FFF798FA069A079B00
:102C2000FFF77AFA002801D000260135AA46002FC6
:102C300000D098E02800FFF78DFA02000B001E98E4
:102C40001F99FFF700FA854B002206000F00FFF7DF
:102C50005DFA0CAB9A46002845D1002230003900BD
:102C60007E4BFFF761FA00283DD1EB073BD50135DC
:102C700039E0229B42460493219B594603930A98CC
:102C80001E9B1F9C0295009301944B46FFF704FD89
:102C900015B0F0BCBB46B246A946A046F0BD229B8B
:102CA0005B0767D403226E4B22990192039121990D
:102CB0000291009342464B4659460A98FFF75EFB45
:102CC000E6E706AA94461723280063440A21013444
:102CD0001E19FEF755FF3031280031700A21FEF72A
:102CE0004FFF051E76D0202CEBD10323229A1340F0
:102CF000012B1DD1219B002B1AD00B9B002B00D048
:102D0000BBE0229A0C33134200D0B6E0219BA342D1
:102D100000D887E006AB9C4617223023624404E0CB
:102D20002199013413558C4259D0202CF8D12024FC
:102D3000229B01940393219B02935346B9E706AA71
:102D4000944617230A216344300001341D19FEF70D
:102D50003FFF3031297030000A21013FFEF738FF74
:102D6000092E46D90600202CE9D155460CAB20246B
:102D70009A46B8E704223B4B96E71E9A1F9B002019
:102D80000021FFF760F901230B938023229C229AF4
:102D9000DB001E901F911C401A4200D0FCE600226E
:102DA000314B0627069207930DE7229B0393219B45
:102DB0000293042301932D4B7BE700220898099985
:102DC000264BFFF7A3F9002800D02FE7002E4FD1A4
:102DD00001362BE70323229A1340012B66D0202CC7
:102DE000A6D00B9B002B1FD02D2352461355013428
:102DF0009EE75546202CB9D030233A19002F08D031
:102E0000172006A9013409180B55202CAED0944286
:102E1000F6D10CAB9A462E2352461355013462E785
:102E20002024CCE6202C83D0229B5B0708D4229B55
:102E30001B0700D47CE7202352461355013477E763
:102E40002B2352461355013472E7C046FFFFEFFFB4
:102E5000FFFFEF7F65CDCD4165CDCDC10000E03FE7
:102E6000408100103881001080842E41488100107C
:102E7000F30700D4DAE60136D8E6219B013B219323
:102E8000A34200D946E7AAE7229B0393219B029322
:102E900003230193074B0CE7074BEA009B185C6880
:102EA0001B682F000693079400248CE6219B002BBF
:102EB00095D022E74481001038870010F0B55746BE
:102EC000DE464E464546E0B5A5B01F002E9B914616
:102ED0000D93CA4ACA4B82468B461A60002900D11C
:102EE00029E2002338789846002800D12BE2C54B10
:102EF00044460C93C44B55464E460E930AE0631C61
:102F00009846220033005946A8474446387800289E
:102F100000D187E001372528F1D108239A46043BE8
:102F20009946023B9846013B00229C460B94387818
:102F3000791C0300203BDBB2102B03D80C9C9B00B8
:102F4000E3589F460300303B0B9C0B92092B3AD968
:102F5000002398462A2800D1DDE000239A462E2837
:102F60004BD00300683BDBB2122B1ED80E9A9B009D
:102F7000D3589F4663460F001A43D8E743460F00D5
:102F80001A43D4E74B460F001A43D0E710230F0033
:102F90001A43CCE753460F001A43C8E780235B006F
:102FA0000B9A78781A430B9201310F0067284FD89B
:102FB0002428A4D90300253BDBB2422B9FD8934998
:102FC0009B00CB589F46002398460B9B47469C4648
:102FD00000E00131BB00DB195B001F180878303FAF
:102FE0000300303B092BF4D963460B930023B8460A
:102FF0009A460F0001312E28B3D180200B9AC000D1
:1030000002430B9230225242944678780B0084445B
:103010006246092A00D8AAE12A2800D1B9E10F00A6
:1030200001319EE7A046AA46B146C84503D3012315
:103030005B424B4498464B46424659460020D04797
:10304000200025B0F0BCBB46B246A946A046F0BD64
:1030500001006939C9B20F2900D950E701238B401B
:103060009C466B4B994663464A4613400F93624613
:103070004B461A4200D068E10A2956D0072900D0F1
:103080003DE70D9B02CB9846002900D092E10B9BB7
:1030900010211A008A431000113108438146802014
:1030A0001A00C0000240110003421CD114AB9C4620
:1030B0001F220F2362440D959C4615000F9B0B9415
:1030C00002E0202B0CD0110064460C402000373069
:1030D000092C00D807380133E8540A090F29F0D821
:1030E0000B9C0D9D0F934B46082206935346059269
:1030F00008320392002204930F9B029201931CABAF
:1031000022000093594633002800FFF78DF943460B
:1031100004000D93FAE60D9B04CB9046002A79DB60
:1031200078780D930F00013117E70D9B02CB1493B4
:103130000B789C4618005346002B00D134E1002840
:1031400015D05346013B013399460D940B9C89449D
:103150004A460B00A14601E0934203D05C7801335C
:10316000002CF9D14A465B1A0D9C0B920F938023D9
:10317000DB0099460B9A13400D934B461A4204D03C
:103180000F9B534501D953460F93022399460B9A3F
:1031900013400B934B46134200D1F5E16346002BDD
:1031A00000D1D6E10D9B002B00D182E10B1BD14653
:1031B00031009A463B00A1442E005F464D46220056
:1031C0009B46894609E04B463900541CB04753469C
:1031D000185D002800D192E122009542F3D14B46C0
:1031E0005A46A946BB46350017001E004C460B9BAD
:1031F000002B00D0ADE1149B0D9387E6BD2E00108F
:103200001C1400209C850010E08500102C86001006
:10321000419000000B9A283802430B9242465242DA
:10322000787890460F000D93013196E678786C28F7
:1032300000D15DE180230B9A5B001A430B920131B0
:10324000B3E680239B00ABE67878682800D148E19C
:1032500080230B9A01311A430B92A6E6672800D10E
:10326000B2E0472800D11AE1452800D11CE10B9AB1
:103270000721049242460D9B0392073352468B432B
:10328000190002920CC92800009201930D912200AE
:1032900033005946FFF700FA040037E6462800D10C
:1032A0008DE00B9A0721049242460D9B039207334F
:1032B00052468B43190002920CC9280000920193D8
:1032C0000D91220033005946FFF718FC04001DE65B
:1032D000631C98462200330059462520A8474446DF
:1032E00014E60D9B04330F93631C99460B9B9A07BE
:1032F00000D40AE10D9B2200187859463300A847F4
:1033000043464444012B00D86FE1B0462E0025000F
:103310004C46B9465F46220043460134390020201E
:10332000B047AC42F7D12C00BB4635004F4646466D
:103330000F9B0D93EAE5D64B38789A4600239846C2
:10334000002800D0D3E500246FE66F2842D000D8D3
:10335000FDE11023782800D19BE00B9A9A430B9251
:103360000A239C46002314930A330F9338E05746F0
:103370000B9AB900C919490001330F181878303F6A
:10338000010030390929F4D9BA460B921F00591CA3
:10339000E7E50D9BB87804CB0237D143C9170A4043
:1033A00092460D93791CDCE5002800D1DFE602236C
:1033B0005B42C8E621200B9A0243914676E6202321
:1033C0000B9A1A430B926CE780230B9A1B011A434A
:1033D0000B924CE708239C460023149308330F9369
:1033E0000B9880230200DB001A40110002001842F3
:1033F00000D080E00C239A431000802302009B0041
:103400001A400B92184200D0F1E0802302005B00CA
:103410001A4091460D9A04321492184200D0C3E229
:10342000430600D5D7E0030600D421E30D9B1B889B
:103430000993002B00D02DE110339843002900D1CF
:1034400028E10023994643460593534604930F9B76
:1034500006900393002302934B4601931CAB22007A
:103460000093594633002800FEF7DEFF0400C2E651
:10347000582809D0622800D0E3E202239C460023AA
:10348000149302330F93ABE720230B9A1A430B924A
:10349000103B9C460023149310330F93A0E7802326
:1034A0000B9A1B011A430B9220230B9A1A430B927F
:1034B000DDE60B1B9A460F9B99463B0037005E46A4
:1034C0009B4622003B003100A84753460134185D5B
:1034D0000028F6D14B460F935B46B3463E001F00D3
:1034E00085E6C0230B9AB8781A430B92F91C5CE569
:1034F000C0239B00F6E70D239A4310007DE75B464F
:103500003500BB464E461F0071E64346012B66D987
:10351000631E434432002E001D003B00A2465F465E
:1035200091469B4622004B46013439002020B0478B
:10353000AC42F7D15B463500BB464E46A1465446E9
:103540001F000D9B4A461878594633004444A8474B
:10355000EEE60F9BA146984500D84CE64444E41A99
:10356000B0462E0025004C46B9465F462200434631
:10357000013439002020B047AC42F7D12C00BB46C3
:1035800035004F46464636E60F98804500D873E230
:103590004346E218131A32002E001D003B009146EC
:1035A0005F469B460F9122004B4601343900202094
:1035B000B047AC42F7D15B46BB461F0043460F996C
:1035C00001330F930B7835009C464E466046002829
:1035D00000D0E7E50FE60D9B1B78099329E70D9BCB
:1035E0002200187859463300A8474C46A0E60D9AA9
:1035F000FA3BFF3B07329A430133994691444B46CD
:103600000D931368526815921A4306D110329043F5
:1036100000220992002900D083E06122810600D5B2
:103620004122D2B20A9214AA91460A9A00210A3A79
:103630000B9242461792524618925A46B246099148
:103640001E001F31149B4944BB4616941A95002452
:10365000674698468946159D19901B920AE03032BC
:10366000D2B24B4601341A55A8454CD0202C4CD030
:1036700006000D003A00002330002900FEF7E6FAAC
:10368000D2B2092AEBD90B9B9C466244D2B2E8E73E
:10369000792300106123820600D54123DBB20A3B67
:1036A0000B93434614A91F228C461593534662443C
:1036B000B2460D9417974C468046A9461700099DBF
:1036C0000F9E169308E03033DBB201343B55B54210
:1036D0000ED3202C0CD0050031002800FEF778FA1C
:1036E000CBB20929EFD90B9A94466344DBB2ECE7DD
:1036F000159B40469846169B4D465646A1469A460F
:103700000D9C179F9FE6B742B0D9179B5646984627
:10371000189B5F469A461B9B09949B46169C1998DA
:103720001A9D43460593534604930F9B06900393BB
:1037300000230293099B01931CAB2200009359467E
:1037400033002800FEF770FE0400FFF7DFFB1023B4
:103750000B9A9A430F92692800D091E10B9980232C
:103760000A00DB001A4010000A00194203D01121A0
:1037700018008A430F920F9A802311009B00194072
:103780008C461A425BD1802311005B0019408946A8
:103790000D9904310B911A4200D0B2E013005B0680
:1037A00000D4EDE00D9B1B781A00D90F0D91002B72
:1037B00000D1A3E0100014AA944642461F2315929C
:1037C00052466344A846BA464D461494B146040096
:1037D0001F00169201E0202D0FD020000A21FEF7D5
:1037E000F7F901357E193031317020000A21FEF7DA
:1037F000EFF926000400092EEDD8159B4E46A94688
:1038000045469846169B57469A46149C0F9B06932E
:1038100043460593534604930A2303930D9B029357
:103820004B4601931CAB22000093594633002800FD
:10383000FEF7FAFD0B9B04000D93FFF767FB0722D1
:103840000D9B07339343013294469C4462460D928C
:103850000CCBD90F0B911100194300D19BE0D91764
:103860001391129151401091139959401191109850
:103870001199129A139B801A99411090119114AAD0
:1038800094464246002315925246994616923200BB
:103890001F336344A8464E46BA4614941F00109C3A
:1038A000119D914601E0202E10D0200029000A220F
:1038B0000023FEF7CBF9013630322B00BA550D004C
:1038C00022000400002BEED1092AECD8159B10949D
:1038D0001195454698464B46169AB14657461E00E6
:1038E0009246149C0F9B06934346059353460493BC
:1038F0000A2303930B9B02934B461CE7002885D1B8
:1039000059E70D9B1B68DA0F1100002B00D1A6E0D0
:10391000DA179818504014AA91461F2342464B4488
:10392000A8460D94169704006546B1461F001491F1
:10393000159201E0202D0FD020000A21FEF748F952
:1039400001357E193031317020000A21FEF740F92F
:1039500026000400092EEDD8159BAC464546984636
:10396000149B4E4619000D9C169F0F9B02910693C7
:1039700043460593534604930A230393634650E753
:1039800013001B066ED50D9B00229B5ED9175A189B
:103990004A4092B209E7002399460028A2D10022AA
:1039A0000023109211936AE70D9B1B689946002B28
:1039B00003D110339843002938D16123820600D502
:1039C0004123DBB20A3B0D9343461693534614A999
:1039D0001F228C4617932B0062444D46B246159425
:1039E00018978046170099460B9C0F9E08E03033CD
:1039F000DBB201343B55B5420ED3202C0CD0050070
:103A000031002800FEF7E4F8CBB20929EFD90D9A6E
:103A100094466344DBB2ECE7169B40469846179BFE
:103A200056464D469A460B94189F159C434605935F
:103A3000534604930F9B06900393002302930B9B22
:103A40000BE50B9980230A00DB001A4010000A00E6
:103A5000194200D08BE610239A430F928BE6002880
:103A600083D158E70D9B1B68D9175A184A409CE62A
:103A70000D9B1B680993DCE4030001330F93A5E55C
:103A80000B926DE400B585B0039101210290009383
:103A9000034813004A4202A9FFF710FA05B000BD1F
:103AA0008926001010B5094A0300146884B0002C60
:103AB00008D0012200910648524203A9A0470120E4
:103AC00004B010BD00F090F90020F9E71C140020AC
:103AD0007926001000BEFDE710B5FFF7FBFFC046DA
:103AE00070B5FDF76FFF074D074EB54209D20024B0
:103AF000013E761BB60808CD984723000134B34237
:103B0000F9D170BD6480001070800010030010B502
:103B1000080011001B68984710BDC046F0B5C646A6
:103B200000B5437D07000D001600002B38D0002A99
:103B30002EDD00216A1E90466A5C037D4C1C00202D
:103B40000A2A0CD0A64216D043461B5D21000D3B2D
:103B50005A4253416A5CDBB24C1C0A2AF2D1002B58
:103B6000F0D1884217DB022110483B689847A642F3
:103B700007D02000E8E7864203DD311A3B682818A9
:103B80009847AD19013D2B780D3B5A4253413B7587
:103B900080BCB846F0BD091A3B6828189847E2E790
:103BA0000368110028009847F2E7C0468887001094
:103BB000F0B5C6460B6806000C0000B5802B06D099
:103BC0005A1C2260E418267180BCB846F0BD0F4B29
:103BD0001D68002D16D00B1D98460D4F02E02D6973
:103BE000002D0FD02B68002BF9D03B68002B01D0A3
:103BF000AB42F4D1280041462268FFF78FFF2D69C0
:103C0000002DEFD101220023DBE7C0461414002071
:103C100018140020F0B5DE4657464E464546E0B53E
:103C200085B017001C0006000D00FDF751FC0023B5
:103C3000314A12184B41802109068B4202D30122DE
:103C40002E4B52422E4908008A4604F0D5F90190C5
:103C50006B1C03D1300004F00BF90500002C26D0BA
:103C6000284B9846284B1C68002C15D0002F21D1DA
:103C7000264F02E02469002C0ED02368002BF9D0D7
:103C80003B68002B01D09C42F4D120002A00310077
:103C9000C0472469002CF0D1019B002B28D12800BB
:103CA00005B0F0BCBB46B246A946A046F0BD184BD5
:103CB0009846D7E7154B994602ABDF1D0A239B4672
:103CC00002E02469002CE7D02368002BF9D04B4692
:103CD0001B68002B01D0A342F3D12A003100200041
:103CE000C0475B460122390020003B70C047E8E72F
:103CF000504604F059F9D2E740420F00FFFFFF7F22
:103D0000300500201D3B0010141400201814002062
:103D10000D3B00100A4A1368002B05D10CE01A0075
:103D20001B691032002B07D09842F8D1002902D12C
:103D300003691360016170470029FCD01060FAE745
:103D40001414002010B500F0B1F9012010BDC046D8
:103D5000F0B5CE46474680B583B06B460600DD1D04
:103D60002870FDF7B5FB00231A4A12184B41802139
:103D700009068B4202D30122174B52421749080011
:103D8000884604F039F9164B81461C68002C14D083
:103D9000144F02E02469002C0FD02368002BF9D0C7
:103DA0003B68002B01D09C42F4D120000122290065
:103DB000FFF7B4FE2469002CEFD14B46002B05D150
:103DC000300003B0C0BCB946B046F0BD404604F078
:103DD000EBF8F5E740420F00FFFFFF7F30050020C2
:103DE000141400201814002070B5040004F040F8EA
:103DF00001230100050001222000FFF70BFF084B03
:103E00001C68002C06D06368002B05D098472469F5
:103E1000002CF8D1280070BD2469002CF3D1F9E7FB
:103E200014140020F0B5CE46474680B5A3B0040078
:103E30000D00FDF74DFB0023294A12184B4180214C
:103E400009068B4202D30122264B5242264F3800EC
:103E500004F0D2F800230600019322002B0023482F
:103E600001A9FFF70FFE019B8046002B14D1204BC8
:103E70001C68002C06D06368002B0BD0984724697F
:103E8000002CF8D1002E25D1404623B0C0BCB94645
:103E9000B046F0BD2469ECE7154B1D689946002D2E
:103EA0001CD0144C02E02D69002D0FD02B68002B84
:103EB000F9D02368002B01D0AB42F4D12800019A3D
:103EC00002A9FFF72BFE2D69002DEFD14B4601957E
:103ED0001C68CEE7380004F067F8D5E70195D1E714
:103EE00040420F00FFFFFF7F30050020B13B001074
:103EF00014140020181400200FB400B583B004A9D6
:103F000001C90191FFF78EFF03B008BC04B0184748
:103F1000F0B5002915DD0E4B0D271A680D4B0E4C20
:103F2000D3185D426B41451820215B001E5F047869
:103F3000A64207D093691942FCD101301460A8420F
:103F4000F5D1F0BD93691942FCD11760F2E7C04684
:103F50004C1500200080FCBF48150020204B70B598
:103F600004000D1E1E682ADD002010211D4B013C9F
:103F70001A689369194214D1013093691942FCD12E
:103F8000136823548542F4D1002E08D05023936344
:103F9000516B183B0B4014498C4662441360280057
:103FA0000CE0002E08D050239363516B183B0B405C
:103FB0000D498C466244136000280DD070BD002E60
:103FC0000AD05022074B1B689A63596B183A0A4073
:103FD00005498C4663441A6003204042EEE7C04620
:103FE000E40A00204C15002034100000064B10B5E8
:103FF0001B68002B06D00021044A12689163044A12
:104000001068984710BDC046E40A00204C150020F7
:10401000E80A00200822034B19688B691A42FCD178
:104020007047C0464C150020F8B51A4F1A4B3A6835
:104030000500D31858424341184E14331C0033680E
:10404000002D02D0002B0FD0F8BD002BFCD000219A
:1040500020009563FCF72AFB20001149FCF764FC63
:10406000104B35601D60EFE70E4B200019600C49C6
:104070003560FCF735FB01212000FCF717FB5022CF
:104080003B689A63596B183A0A4007498C46634467
:104090001A60D9E74C1500200080FCBFE40A00201C
:1040A000ED3F0010E80A0020341000000D4B10B561
:1040B0001B780D4B0D4C1B780D4B02211B780D4BC3
:1040C00000202360FCF74CF902210120FCF748F99D
:1040D000E12120684902FDF749FA01210648FFF76E
:1040E00019FE10BD6CFD031068FD03104C15002077
:1040F00064FD031000400340F0040020014B1860F1
:104100007047C046B809002010B5034B0A000100F3
:10411000180002F0D1FF10BD280B0020014B1868D9
:104120007047C046B809002010B582B0FFF7F6FF0F
:10413000002807D003F08EFA03000020002B10D0D7
:1041400002B010BD684603F0DDFC0F4C694620004C
:1041500003F0DEFC002813D02000FFF7CFFF200083
:10416000E8E7FFF7DBFF040003F090FA064B9C4200
:1041700006D1236820005B6B98470020FFF7BEFF45
:1041800001204042DCE7C0463805002010B5024857
:1041900000F00CF810BDC0463814002010B50822FD
:1041A0000149FEF7E3F810BD3814002010B588B0BF
:1041B00004000D2200216846FEF7D2F80D220021EE
:1041C00004A8FEF7CDF84B236A466846137004A98D
:1041D0000D2203F0E1FE1521082220006944FEF7BC
:1041E000C5F808B010BDC04610B50520FDF73CFB72
:1041F000030C642003495843FDF7EAFC0338FDD261
:1042000010BDC0469A3B0000184B70B5C45805005D
:10421000002C14D02168002906D06368A2681448D5
:1042200003F010F9002323600C202056002810DA38
:104230000D202056002803DA00220C4BEA5070BDF6
:1042400003F03CF90D20205603F01CF9FF236373A3
:10425000F2E703F033F90C20205603F013F9FF23A3
:104260000D20237320560028E6DBE9E74C08000008
:10427000A8870010F0B5C6463E4C3F4B00B5C45071
:10428000002306212200012684B02360013BA38184
:10429000019112310500009138482100231D083298
:1042A000029603F009F800285DD0636834485A1D6F
:1042B0001203DB011A43334B01681A4030238B434E
:1042C000314990460B6003683000984308608021B4
:1042D00020682E4B4904C3181960A16880224B0046
:1042E0005B18DB00C3181F009202C8373A60C02277
:1042F0009202BA6042467A60254ADC331A601D2277
:104300000123009602F07EFF224B21689C46614407
:10431000090D06311820C9B2FCF722F8012200214C
:104320001820FCF737F801211820FCF747F8A1689E
:1043300023684A005218D2009B18174AD8331A60D3
:10434000002003F0A9F82073002003F0A5F8237BD8
:1043500040B2607318430437000604D4002004B050
:1043600080BCB846F0BD2800FFF74EFF0620404253
:10437000F5E7C046D40A00204C080000A8870010CA
:1043800078C00140FFFFFF9F78D001403820000037
:1043900018771C240000E0AF01E00000F0B54E46A5
:1043A0004546DE465746E0B589461600984689B030
:1043B000002900D124E1964BC458964B21689C46B5
:1043C0006144090D06311820C9B2FBF7C9FF914BB2
:1043D00021689C466144090D06311D20C9B2FBF7D6
:1043E000BFFF012200211D20FBF7D4FFD023802234
:1043F0001B0692049A614346002B00D122E14B46F2
:10440000002B00D1FAE001252A00A16820688A402B
:1044100003689343036063689C464B005B18DB00B2
:10442000C718CC3703933B689A4663465A1D7A4BAC
:1044300012039B46049253465A461340049A1A4369
:104440006346DB011A433A60744A039B9446802218
:10445000C318634412061A601A60802200235204B3
:104460000092019302F078FE2900A36827681A1DC4
:104470009140944680229201BA18116019002800D8
:104480000831884099001060F2007918013A0A61F9
:104490005A00D218D2006248BA18D8321060129866
:1044A000801BC000013808611F205E4911606168EF
:1044B00001401160A0210C22C9058A46A25650462F
:1044C0009540594945509101080080258346079140
:1044D00056496D04594408682842FCD10D20012535
:1044E000205651498540039050464550A021C905AA
:1044F0008A464E4903988B4685018021AA445D4433
:104500009B462B0049041D680D42FCD15B46414986
:1045100003907D182D0DED005919C9038B4658469F
:104520004349D2020A400243424806950100A020B6
:104530001143C005624683464846079D92005D448C
:10454000049228600498B9468346D94448460591A8
:104550002900B2086860AA60059DCD600399069D98
:10456000C8023349654408401299ED0389080543A0
:104570008A1A31485946284355461031791829601E
:10458000414689196960AA6001229A401300E860D7
:1045900039680B433B600C22284B80219C46A25675
:1045A00049049201624413680B42FCD10D22234B53
:1045B00080219C46A25649049201624413680B4232
:1045C000FCD1002132004046FDF7CAFEA1682368F5
:1045D0004A005218D2009B18194AD8331A60D023C7
:1045E00080221B0692045A61FFF7FEFD002009B0ED
:1045F000F0BCBB46B246A946A046F0BDC14602E7A4
:104600004346002B00D0D6E605204042EFE7C046E7
:104610004C0800000000E0AF7F00FEFFD01000005B
:104620002060000040600000440400000C000050C6
:10463000FD7F00FF190040002900400010000050DD
:1046400003A000004B46002BC0D001273A00A16810
:1046500020688A4003689343036063689C464B006C
:104660005B18DB00C518CC3503932B689A4663466C
:104670005A1C434B12039B46049253465A4613401E
:10468000049A1A436346DB011A432A603D4A039B9E
:1046900094468022C318634412061A601A6080226E
:1046A000002352040092019302F056FD3900A068E5
:1046B0002268031D99409A4680239B01D3181960F4
:1046C00001003D0008318D4081001D60F30051184C
:1046D000013B0B6143001B18DB002B4DD318D83373
:1046E0001D6045460D611F252849196061682940F4
:1046F00019600C23E356A0219F409C46244BC9051A
:10470000CF5063469901A023DB05CF18214B8025AC
:1047100098466D0441440B682B42FCD161461E4B08
:104720001E4DD3181B0DDB001B18C9022940DB03EB
:104730000B431B49B6080B434946396051468D006F
:1047400055197D60BE60FB60012301001D0018311A
:104750008D4083409560290015682B431360936852
:104760001942FCD00122A16820688A400368934363
:104770000360002318220093013302F043FD25E774
:104780007F00FEFFD01000002060000040600000AD
:10479000440400000C0000500000E0AFFD7F00FF6B
:1047A0001900400010B51720FBF77AFED0248023B3
:1047B00024061B040022012163621720FBF7EAFD97
:1047C0001820FBF76DFE80235B0463621920A36150
:1047D000FBF766FE80239B046362636110BDC046E5
:1047E00070B5D024802524062D04A5611420FCF783
:1047F000D1FD6561FA20FCF7CDFD1820FBF750FED6
:1048000080235B04A36270BD002300B585B00393D1
:104810000A4BD2021A40082309071143084A0093A1
:104820000A4302AB52BA002102920422FFF7B6FDFE
:10483000002801D1039840BA05B000BD00F8FF0F71
:104840000400004010B5114BD2021A400B071A4366
:104850000F4B88B013434C1E0293634263411B010C
:10486000083300930422002102ABFFF797FD0028D4
:104870000AD1631E9C4103236142994308226B467F
:10488000053189009B18585808B010BD00F8FF0F7B
:104890000400004010B5114BD2021A400B071A4316
:1048A0000F4B88B013434C1E0293634263411B01BC
:1048B000083300930422002102ABFFF76FFD0028AC
:1048C0000AD1631E9C4103236142994308226B462F
:1048D000053189009B18585808B010BD00F8FF0F2B
:1048E0000200004010B5114BD2021A400B071A43C8
:1048F0000F4B88B013434C1E0293634263411B016C
:10490000083300930422002102ABFFF747FD002883
:104910000AD1631E9C4103236142994308226B46DE
:10492000053189009B18585808B010BD00F8FF0FDA
:1049300001000040F0B55BBADE46454657464E469C
:10494000E0B585B06D4C03936D4BD2022240C45844
:104950006C4B09079C4611436B4A18200A43216897
:1049600052BA6144090D0631C9B20292FBF7F8FC54
:10497000644B21689C466144090D06311D20C9B273
:10498000FBF7EEFC012200211D20FBF703FDD023E5
:10499000802201271B0692049A613A00A1682068D0
:1049A0008A40036802AD9343036063689C464B00F2
:1049B0005B18DB00C618CC369A46336898466346C7
:1049C0005A1C13039B46514B994643464A46134093
:1049D0005A461A436346DB011A4332604C4A534637
:1049E00094468022C318634412061A601A6080221B
:1049F000002352040092019302F0AEFB3900A0683C
:104A00002268031D9940984680239B01D3181960A2
:104A100001003E0008318E401E603F238100511886
:104A20000B6143001B18DB003A4ED318D8331E60CD
:104A300000260E6138491F361960616831401960DF
:104A40000C23E356A0219F409C46344BC905CF5010
:104A500063469901A023DB05CF18314B8026994688
:104A6000760449440B683342FCD16146254B2D4EF8
:104A7000D3181B0DDB001B18C9023140DB030B43AD
:104A800029493D600B4341468E00022196197E6004
:104A9000B960FB60012301001D0018318D40834087
:104AA0009560290015682B43136093680B42FCD076
:104AB0000122A16820688A400368934303600023B1
:104AC00018220093013302F09DFBA16823684A007D
:104AD0005218D2009B18154AD8331A60D02380226E
:104AE0001B0692045A61FFF77FFB002005B0F0BC63
:104AF000BB46B246A946A046F0BDC04600F8FF0F2F
:104B00004C0800000000E0AF040000C07F00FEFF82
:104B1000D01000002060000040600000440400004D
:104B20000C000050FD7F00FF1900400003A00000B2
:104B3000F0B54546DE4657464E46E0B5734CD202C8
:104B400022400C072243724C85B0224302AD0292F0
:104B50006B60012909D108246E494450083942503C
:104B60006D4A835082686D4BC2506D4B0127C4580B
:104B70006C4B21689C466144090D06311820C9B26E
:104B8000FBF7EEFB674B21689C466144090D06313B
:104B90001D20C9B2FBF7E4FB012200211D20FBF719
:104BA000F9FBD02380221B0692049A613A00A16887
:104BB00020688A4003689343036063689C464B0007
:104BC0005B18DB00C618CC369A46336898466346B5
:104BD0005A1C13039B46544B994643464A4613407E
:104BE0005A461A436346DB011A4332604F4A534622
:104BF00094468022C318634412061A601A60802209
:104C0000002352040092019302F0A6FA3900A06832
:104C10002268031D9940984680239B01D318196090
:104C200001003E0008318E401E603F238100511874
:104C30000B6143001B18DB003D4ED318D8331E60B8
:104C400000260E613B491F361960616831401960CA
:104C50000C23E356A0219F409C46374BC905CF50FB
:104C600063469901A023DB05CF18344B8026994673
:104C7000760449440B683342FCD16146294B304EDF
:104C8000D3181B0DDB001B18C9023140DB030B439B
:104C90002C493D600B4341468E00022196197E60EF
:104CA000B960FB60012301001D0018318D40834075
:104CB0009560290015682B43136093680B42FCD064
:104CC0000122A16820688A4003689343036000239F
:104CD00018220093013302F095FAA16823684A0074
:104CE0005218D2009B18184AD8331A60D023802259
:104CF0001B0692045A61FFF777FA002005B0F0BC5A
:104D0000BB46B246A946A046F0BDC04600F8FF0F1C
:104D1000040000C058080000540800005C080000AF
:104D20004C0800000000E0AF7F00FEFFD010000044
:104D30002060000040600000440400000C000050AF
:104D4000FD7F00FF1900400003A00000F0B54546BC
:104D5000DE4657464E46E0B5734CD20222400C0761
:104D60002243724C85B0224302AD02926B6001294E
:104D700009D108246E494450083942506D4A835085
:104D800082686D4BC2506D4B0127C4586C4B216833
:104D90009C466144090D06311820C9B2FBF7E0FAC0
:104DA000674B21689C466144090D06311D20C9B23C
:104DB000FBF7D6FA012200211D20FBF7EBFAD023E6
:104DC00080221B0692049A613A00A16820688A40FA
:104DD00003689343036063689C464B005B18DB00E9
:104DE000C618CC369A463368984663465A1C130355
:104DF0009B46544B994643464A4613405A461A43EB
:104E00006346DB011A4332604F4A53469446802280
:104E1000C318634412061A601A60802200235204E9
:104E20000092019302F098F93900A0682268031DEE
:104E30009940984680239B01D318196001003E00D9
:104E400008318E401E603F23810051180B614300E2
:104E50001B18DB003D4ED318D8331E6000260E61B0
:104E60003B491F3619606168314019600C23E356D5
:104E7000A0219F409C46374BC905CF5063469901FE
:104E8000A023DB05CF18344B80269946760449448D
:104E90000B683342FCD16146294B304ED3181B0DB1
:104EA000DB001B18C9023140DB030B432C493D607A
:104EB0000B4341468E00022196197E60B960FB606B
:104EC000012301001D0018318D40834095602900A9
:104ED00015682B43136093680B42FCD00122A16834
:104EE00020688A40036893430360002318220093DC
:104EF000013302F087F9A16823684A005218D200F2
:104F00009B18184AD8331A60D02380221B069204BB
:104F10005A61FFF769F9002005B0F0BCBB46B24604
:104F2000A946A046F0BDC04600F8FF0F020000C031
:104F300058080000540800005C0800004C080000FD
:104F40000000E0AF7F00FEFFD010000020600000F6
:104F500040600000440400000C000050FD7F00FF92
:104F60001900400003A00000F0B54546DE46574654
:104F70004E46E0B5734CD20222400C072243724CDD
:104F800085B0224302AD02926B60012909D1082449
:104F90006E494450083942506D4A835082686D4BC7
:104FA000C2506D4B0127C4586C4B21689C4661442C
:104FB000090D06311820C9B2FBF7D2F9674B2168F9
:104FC0009C466144090D06311D20C9B2FBF7C8F9A2
:104FD000012200211D20FBF7DDF9D02380221B06D2
:104FE00092049A613A00A16820688A40036893435A
:104FF000036063689C464B005B18DB00C618CC3628
:105000009A463368984663465A1C13039B46544B92
:10501000994643464A4613405A461A436346DB01C3
:105020001A4332604F4A534694468022C318634461
:1050300012061A601A608022002352040092019323
:1050400002F08AF83900A0682268031D994098464A
:1050500080239B01D318196001003E0008318E4067
:105060001E603F23810051180B6143001B18DB00B9
:105070003D4ED318D8331E6000260E613B491F36C3
:1050800019606168314019600C23E356A0219F40EC
:105090009C46374BC905CF5063469901A023DB05D9
:1050A000CF18344B80269946760449440B68334226
:1050B000FCD16146294B304ED3181B0DDB001B1869
:1050C000C9023140DB030B432C493D600B43414691
:1050D0008E00022196197E60B960FB6001230100F9
:1050E0001D0018318D4083409560290015682B43C1
:1050F000136093680B42FCD00122A16820688A40AB
:10510000036893430360002318220093013302F0E5
:1051100079F8A16823684A005218D2009B18184AEF
:10512000D8331A60D02380221B0692045A61FFF7FD
:105130005BF8002005B0F0BCBB46B246A946A046CD
:10514000F0BDC04600F8FF0F010000C05808000085
:10515000540800005C0800004C0800000000E0AFAC
:105160007F00FEFFD01000002060000040600000C3
:10517000440400000C000050FD7F00FF19004000B7
:1051800003A00000F0B5DE1C1D000323040083B063
:105190009E43012924D024230420164FD2023A40F2
:1051A00009072A430A4380210430C90580000A43C5
:1051B0002018043642600021009604222000E318E3
:1051C000FFF7ECF8061E0FD12100089B2831994209
:1051D00003D02A001800FDF7C9F8300003B0F0BD75
:1051E000002010361133D8E731000348FEF784FE63
:1051F000F3E7C04600F8FF0F7C810010F0B557467A
:105200004E464546DE46E0B50500032091468BB08C
:105210001A00033302AF8343022922D01C1D4B46E0
:10522000234EDB020907334011431943C0232800F2
:105230001B060B43B96C28306B62884201D0FDF726
:1052400095F8290000232200280024310093FFF75D
:10525000A5F8BD4609B0F0BCBB46B246A946A0467B
:10526000F0BDFA240826A8468A469346A4007B602F
:10527000013C16D30F4B0422BB600823002140469B
:105280000096FB186D46FFF789F8002800D1F868F2
:10529000AD468006ECD5454651465A467B68002C03
:1052A000BCD10548FEF7A0FD06204042D1E7C0462C
:1052B00000F8FF0F04400040B0830010836870B511
:1052C000CC0B0500E403A3420DD0802263405204BE
:1052D000934219D2FF22120413420CD1FF22120270
:1052E000134201D1AC6070BD012128000A4A230A93
:1052F000FFF73AFEF6E7230C01212800074AFFF7E3
:1053000033FEAB686340E9E7230E0121044AFFF74F
:105310002BFEAB686340DDE70A0001000B000100D3
:105320000C000100F0B5C646033000B58D1E8408A0
:1053300010D0631E072B03D90B002B435B0721D032
:105340002A00A4002C19938850881B04034308C228
:10535000A242F8D16B885BBA6B808B1C1A6813BAB7
:105360006B608B1D186803BAAB600B000A331B68B7
:105370001BBAEB608A23DB059A421BD0280080BC55
:10538000B846F0BDC3089C46DB002E0008009846D6
:10539000CF180CC80CC68742FBD163465800434661
:1053A000EF18CE188442D5D0738832881B0413437B
:1053B0003B60CFE780231B059842DFD10B000A003A
:1053C0000E00B232AE3310681B882E3632691C18BC
:1053D000944216D83A31C918081881423AD20027A7
:1053E000002404E0DD2A10D0C918884220D94B7867
:1053F0000233CA189042F7D30A78302AF2D10C004F
:10540000F2E701235B42AB60B8E78A1C90468A78DA
:10541000002AE9D142465278502AE5D14246927894
:10542000F22AE1D14246D278012ADDD10F00DBE732
:10543000631E9C41A400002F01D002221443B28BB2
:10544000D20601D5012214438422A95CA952043258
:10545000AC5493E70024F2E7F0B5C6460E00050011
:105460000B0000B501211A4AFFF77EFD3300012130
:105470002800174AFFF778FD002E25D003230327C5
:10548000984640240BE0012002F07CF9013C3300F7
:10549000012128000E4AFFF767FD002C0FD00121E3
:1054A00028000B4AFFF71EFA0028ECDB42460240B8
:1054B000BA42E8D1FF28E6D080BCB846F0BD310042
:1054C0000448FEF719FDF7E7012300279846D8E7BF
:1054D0001F00010098810010F0B5D6464F464646A1
:1054E000C0B5C37C05000F00924682B0002B05D1E9
:1054F000006801F0CBFC002800D197E0280001F003
:10550000CBFCAB7C002B05D101212800FFF7A4FFC9
:105510000123AB74EB7C002B00D16EE0FA24A400D5
:1055200003E0013C002C00D180E00822002128008B
:10553000FFF788F9431CF4D0C30500D4BFE0C022B4
:1055400003035B0D591ED200914200D3B1E08007E6
:1055500000D5AEE02C00283400220221280000945F
:10556000FFF710FE00283BD1298D6A8D0B001343F5
:1055700000D1A4E00123EB74604B9C460B00534028
:10558000634500D0A1E0D24392B2914200D099E0AD
:105590000B2900D8A0E0237AAB730F236279134064
:1055A000022B23D8627A944666466A7BB21AD2B23C
:1055B000142A3ED90C291DD0012B3CD0022B60D0DF
:1055C0001B2900D894E0E3792D8AE3185A89954283
:1055D00000D08AE0524610331C1B0C1B3C60136049
:1055E00002B0E0BCBA46B146A846F0BD0B2040422E
:1055F0000C29F5D104204042F2E7042200212800C2
:10560000FFF748F983B298463D4B040099461B8842
:10561000434502D0862303422DD14346002B42D17D
:105620004B4642461A80A40600D577E70120404247
:10563000D6E76E73BEE710295DD9E379E318DA780F
:10564000920004329B181A7B1C1B091B882A46D126
:105650005A7B6C2A43D1DA7C002A3AD11A7D102A6F
:1056600037D15A7D182A34D1524618391833396047
:1056700001201360B4E70104090C2248FEF73CFC4A
:10568000CBE710292ED9E2790220A218D3789B000B
:105690000433D31892781C1BD2070C1B14435246B8
:1056A0003C6013609CE7042200212800FFF74EFBBA
:1056B000B6E7012301212800134AFFF755FC002318
:1056C000EB74B3E7022040428AE71048FEF714FC6F
:1056D000ACE70A20404283E70320404280E70920EC
:1056E00040427DE7072040427AE70620404277E7C4
:1056F0000520404274E70820404271E7FFFF0000A8
:1057000052150020BC8100100D000100E88100103E
:10571000F0B5DE46574645464E460400E0B585B036
:105720009A468846934601F0B7FBA37C002B05D12F
:1057300001212000FFF790FE0123A374A37B002B1F
:1057400024D02F4F2F4EBB6A99460EE0A17B002933
:1057500003D1237B627B9A421CD14B46ED1AB542A2
:1057600045D8FA20800001F0DBFF200003AA02A93F
:10577000BD6AFFF7B1FE0128E8D103990298FFF74F
:10578000D1FD0100200001F08DFBDFE7237B627B70
:105790009A42D6D05A4651460C3292B20A80D2432F
:1057A0000B714A80524641465171002251468A711E
:1057B00041468E1E711E8E41012176428E43514616
:1057C00001330E360A814A81CE7123735B46033260
:1057D0000F3393430091002202212000FFF70EFDBA
:1057E00005B0F0BCBB46B246A946A046F0BD637BFF
:1057F000227B0548FEF780FB02204042F0E7C046CE
:105800000040054040420F0014820010F0B557469A
:105810004E464546DE46E0B5294E9246B76A984662
:10582000284AB36A0500894683B0DB1B93422ED811
:10583000254B9B4610E0022820D0002803DB010006
:105840005846FEF759FBFA20800001F069FFB36A61
:105850001C4ADB1B93421AD86946280001AAFFF7AD
:105860003BFE041E23D00128E5D101990098FFF7E3
:1058700059FD0100280001F015FBE4E70099019BA8
:105880004A0028685208C90F01F0AEFFDBE7434623
:105890005246494602240D48FEF72EFB6442200082
:1058A00003B0F0BCBB46B246A946A046F0BD009A84
:1058B000424500D9424601990C9802F079FAEEE788
:1058C000004005403F420F00388200106482001003
:1058D000F0B54546904640225746DE464E46524277
:1058E00093469246E0B50024070083B08B449A4467
:1058F0004022230040349146444502D94246D31AFF
:1059000099465B461D19BB68EE0BF6039E420DD00F
:10591000802273405204934227D2FF221204134282
:105920002FD1FF221202134218D1BE6080225346AB
:105930006D041B196D0C1202009301214B463800B7
:105940002A43FFF75BFC002801D14445D0D303B0C4
:10595000F0BCBB46B246A946A046F0BD01213800C6
:105960000C4A330AFFF700FBDFE700230A4A012154
:105970003800FFF7F9FAFF22BB68120473401342A4
:10598000CFD0330C01213800044AFFF7EDFABB6891
:105990007340C6E70A0001000C0001000B00010083
:1059A000F0B5CE46474680B5060083B00400080037
:1059B0001700894602F05CFA431C984644360500FD
:1059C0001A0049463000FCF7D1FC4346F2183B0A66
:1059D000177053703B0C3F0E9370D7702A008023D2
:1059E00021326F1D1B019A4220D80822238AFF32E0
:1059F00001339BB290466263063AFF3A23821B044E
:105A00001343E36300232A002364230000212000C2
:105A1000A76315322833FFF77BFE002806D13B0031
:105A20004246022120000096FFF7F0FE03B0C0BC02
:105A3000B946B046F0BDC046F0B5CE46474680B543
:105A4000060083B00400080099468846170002F05B
:105A50000FFA4436451C3A004946701902F0A8F97D
:105A60002A0041463000ED19FCF780FC2A00802313
:105A70001C321B019A4220D8218A0A9B013189B22B
:105A80001B03218209041943022319430023082719
:105A900023642300FF37E163200000216763A563CF
:105AA00028330C3AFFF734FE002806D12B003A00C9
:105AB000022120000096FFF7A9FE03B0C0BCB94642
:105AC000B046F0BD836870B5CE0B04000D00F60340
:105AD0009E420DD0802273405204934239D2FF225D
